{
  "contractName": "Certifier",
  "abi": [
    {
      "constant": true,
      "inputs": [],
      "name": "certifierAccount",
      "outputs": [
        {
          "name": "",
          "type": "address"
        }
      ],
      "payable": false,
      "stateMutability": "view",
      "type": "function"
    },
    {
      "inputs": [],
      "payable": false,
      "stateMutability": "nonpayable",
      "type": "constructor"
    },
    {
      "constant": false,
      "inputs": [
        {
          "name": "_name",
          "type": "string"
        },
        {
          "name": "_code",
          "type": "bytes32"
        },
        {
          "name": "_max_st",
          "type": "uint8"
        },
        {
          "name": "_start",
          "type": "uint256"
        },
        {
          "name": "_end",
          "type": "uint256"
        },
        {
          "name": "_hours",
          "type": "uint8"
        },
        {
          "name": "_threshold",
          "type": "uint8"
        },
        {
          "name": "_session_codes",
          "type": "bytes32[]"
        },
        {
          "name": "_cost",
          "type": "uint8"
        }
      ],
      "name": "addCourse",
      "outputs": [],
      "payable": false,
      "stateMutability": "nonpayable",
      "type": "function"
    },
    {
      "constant": false,
      "inputs": [
        {
          "name": "_code",
          "type": "bytes32"
        },
        {
          "name": "_fname",
          "type": "string"
        },
        {
          "name": "_lname",
          "type": "string"
        },
        {
          "name": "_id",
          "type": "bytes32"
        },
        {
          "name": "_discount",
          "type": "uint8"
        },
        {
          "name": "_email",
          "type": "string"
        }
      ],
      "name": "subscribe",
      "outputs": [],
      "payable": true,
      "stateMutability": "payable",
      "type": "function"
    }
  ],
  "bytecode": "0x608060405234801561001057600080fd5b50336000806101000a81548173ffffffffffffffffffffffffffffffffffffffff021916908373ffffffffffffffffffffffffffffffffffffffff160217905550610787806100606000396000f300608060405260043610610057576000357c0100000000000000000000000000000000000000000000000000000000900463ffffffff1680634f07ac131461005c5780638b188e861461015e578063f5b97d98146101b5575b600080fd5b34801561006857600080fd5b5061015c600480360381019080803590602001908201803590602001908080601f01602080910402602001604051908101604052809392919081815260200183838082843782019150505050505091929192908035600019169060200190929190803560ff1690602001909291908035906020019092919080359060200190929190803560ff169060200190929190803560ff16906020019092919080359060200190820180359060200190808060200260200160405190810160405280939291908181526020018383602002808284378201915050505050509192919290803560ff1690602001909291905050506102c6565b005b34801561016a57600080fd5b50610173610463565b604051808273ffffffffffffffffffffffffffffffffffffffff1673ffffffffffffffffffffffffffffffffffffffff16815260200191505060405180910390f35b6102c46004803603810190808035600019169060200190929190803590602001908201803590602001908080601f0160208091040260200160405190810160405280939291908181526020018383808284378201915050505050509192919290803590602001908201803590602001908080601f01602080910402602001604051908101604052809392919081815260200183838082843782019150505050505091929192908035600019169060200190929190803560ff169060200190929190803590602001908201803590602001908080601f0160208091040260200160405190810160405280939291908181526020018383808284378201915050505050509192919290505050610488565b005b6000809054906101000a900473ffffffffffffffffffffffffffffffffffffffff1673ffffffffffffffffffffffffffffffffffffffff163373ffffffffffffffffffffffffffffffffffffffff1614151561032157600080fd5b610100604051908101604052808a81526020018860ff1681526020018781526020018681526020018560ff1681526020018460ff1681526020018381526020018260ff16815250600160008a60001916600019168152602001908152602001600020600082015181600001908051906020019061039f92919061063e565b5060208201518160010160006101000a81548160ff021916908360ff160217905550604082015181600201556060820151816003015560808201518160040160006101000a81548160ff021916908360ff16021790555060a08201518160040160016101000a81548160ff021916908360ff16021790555060c08201518160050190805190602001906104339291906106be565b5060e08201518160060160006101000a81548160ff021916908360ff160217905550905050505050505050505050565b6000809054906101000a900473ffffffffffffffffffffffffffffffffffffffff1681565b600060016000886000191660001916815260200190815260200160002090506729a2241af62c000034141515610526576040517f08c379a00000000000000000000000000000000000000000000000000000000081526004018080602001828103825260178152602001807f596f75206469646e27742073656e64203320657468657200000000000000000081525060200191505060405180910390fd5b60a06040519081016040528087815260200186815260200183815260200160006040519080825280602002602001820160405280156105745781602001602082028038833980820191505090505b50815260200160001515815250816007016000866000191660001916815260200190815260200160002060008201518160000190805190602001906105ba92919061063e565b5060208201518160010190805190602001906105d792919061063e565b5060408201518160020190805190602001906105f492919061063e565b5060608201518160030190805190602001906106119291906106be565b5060808201518160040160006101000a81548160ff02191690831515021790555090505050505050505050565b828054600181600116156101000203166002900490600052602060002090601f016020900481019282601f1061067f57805160ff19168380011785556106ad565b828001600101855582156106ad579182015b828111156106ac578251825591602001919060010190610691565b5b5090506106ba9190610711565b5090565b828054828255906000526020600020908101928215610700579160200282015b828111156106ff5782518290600019169055916020019190600101906106de565b5b50905061070d9190610736565b5090565b61073391905b8082111561072f576000816000905550600101610717565b5090565b90565b61075891905b8082111561075457600081600090555060010161073c565b5090565b905600a165627a7a72305820e1fdfb2e5e0433c0582c1f07a45ad998d8627f5bbb922f98402114d7bca690d10029",
  "source": "pragma solidity ^0.4.23;\n\ncontract Certifier {\n    struct Course {\n        string name;\n        uint8 max_students;\n        uint start;\n        uint end;\n        uint8 duration;\n        uint8 threshold;\n        bytes32[] session_codes;\n        uint8 cost;\n        mapping(bytes32 => Student) students;\n    }\n\n    struct Student {\n        string fname;\n        string lname;\n        string email;\n        bytes32[] session_codes;\n        bool isCertified;\n    }\n\n    address public certifierAccount;\n    mapping(bytes32 => Course) courses;\n\n    constructor () public {\n        certifierAccount = msg.sender;\n    }\n\n    modifier onlyCertifier () {\n        require(msg.sender == certifierAccount);\n        _;\n    }\n\n    function addCourse(\n        string _name,\n        bytes32 _code,\n        uint8 _max_st,\n        uint _start,\n        uint _end,\n        uint8 _hours,\n        uint8 _threshold,\n        bytes32[] _session_codes,\n        uint8 _cost) public onlyCertifier {\n        courses[_code] = Course({\n            name : _name,\n            max_students : _max_st,\n            start : _start,\n            end : _end,\n            duration : _hours,\n            threshold : _threshold,\n            session_codes : _session_codes,\n            cost : _cost\n            });\n    }\n\n    function subscribe(\n        bytes32 _code,\n        string _fname,\n        string _lname,\n        bytes32 _id,\n        uint8 _discount,\n        string _email\n    ) public payable {\n        Course storage course = courses[_code];\n        require(msg.value == 3 ether, \"You didn't send 3 ether\");\n        course.students[_id] = Student({\n            fname : _fname,\n            lname : _lname,\n            email : _email,\n            session_codes : new bytes32[](0),\n            isCertified : false\n            });\n    }\n}",
  "sourcePath": "/home/mesi/Blockchain/certifier/contracts/Certifier.sol",
  "compiler": {
    "name": "solc",
    "version": "0.4.24+commit.e67f0147.Emscripten.clang"
  },
  "schemaVersion": "2.0.1",
  "updatedAt": "2018-08-25T16:21:38.271Z"
}