{
  "contractName": "Certifier",
  "abi": [
    {
      "constant": true,
      "inputs": [],
      "name": "certifierAccount",
      "outputs": [
        {
          "name": "",
          "type": "address"
        }
      ],
      "payable": false,
      "stateMutability": "view",
      "type": "function"
    },
    {
      "inputs": [],
      "payable": false,
      "stateMutability": "nonpayable",
      "type": "constructor"
    },
    {
      "constant": false,
      "inputs": [
        {
          "name": "_name",
          "type": "string"
        },
        {
          "name": "_code",
          "type": "bytes32"
        },
        {
          "name": "_max_st",
          "type": "uint8"
        },
        {
          "name": "_start",
          "type": "uint256"
        },
        {
          "name": "_end",
          "type": "uint256"
        },
        {
          "name": "_hours",
          "type": "uint8"
        },
        {
          "name": "_threshold",
          "type": "uint8"
        },
        {
          "name": "_session_codes",
          "type": "bytes32[]"
        },
        {
          "name": "_cost",
          "type": "uint8"
        }
      ],
      "name": "addCourse",
      "outputs": [],
      "payable": false,
      "stateMutability": "nonpayable",
      "type": "function"
    }
  ],
  "bytecode": "0x608060405234801561001057600080fd5b50336000806101000a81548173ffffffffffffffffffffffffffffffffffffffff021916908373ffffffffffffffffffffffffffffffffffffffff1602179055506104b5806100606000396000f30060806040526004361061004c576000357c0100000000000000000000000000000000000000000000000000000000900463ffffffff1680634f07ac13146100515780638b188e8614610153575b600080fd5b34801561005d57600080fd5b50610151600480360381019080803590602001908201803590602001908080601f01602080910402602001604051908101604052809392919081815260200183838082843782019150505050505091929192908035600019169060200190929190803560ff1690602001909291908035906020019092919080359060200190929190803560ff169060200190929190803560ff16906020019092919080359060200190820180359060200190808060200260200160405190810160405280939291908181526020018383602002808284378201915050505050509192919290803560ff1690602001909291905050506101aa565b005b34801561015f57600080fd5b50610168610347565b604051808273ffffffffffffffffffffffffffffffffffffffff1673ffffffffffffffffffffffffffffffffffffffff16815260200191505060405180910390f35b6000809054906101000a900473ffffffffffffffffffffffffffffffffffffffff1673ffffffffffffffffffffffffffffffffffffffff163373ffffffffffffffffffffffffffffffffffffffff1614151561020557600080fd5b610100604051908101604052808a81526020018860ff1681526020018781526020018681526020018560ff1681526020018460ff1681526020018381526020018260ff16815250600160008a60001916600019168152602001908152602001600020600082015181600001908051906020019061028392919061036c565b5060208201518160010160006101000a81548160ff021916908360ff160217905550604082015181600201556060820151816003015560808201518160040160006101000a81548160ff021916908360ff16021790555060a08201518160040160016101000a81548160ff021916908360ff16021790555060c08201518160050190805190602001906103179291906103ec565b5060e08201518160060160006101000a81548160ff021916908360ff160217905550905050505050505050505050565b6000809054906101000a900473ffffffffffffffffffffffffffffffffffffffff1681565b828054600181600116156101000203166002900490600052602060002090601f016020900481019282601f106103ad57805160ff19168380011785556103db565b828001600101855582156103db579182015b828111156103da5782518255916020019190600101906103bf565b5b5090506103e8919061043f565b5090565b82805482825590600052602060002090810192821561042e579160200282015b8281111561042d57825182906000191690559160200191906001019061040c565b5b50905061043b9190610464565b5090565b61046191905b8082111561045d576000816000905550600101610445565b5090565b90565b61048691905b8082111561048257600081600090555060010161046a565b5090565b905600a165627a7a723058205861df648c3d48556cad1f1261b3e5c698bfb169d36130ca60660684c4a10c080029",
  "source": "pragma solidity ^0.4.23;\n\ncontract Certifier {\n    struct Course {\n        string name;\n        uint8 students;\n        uint start;\n        uint end;\n        uint8 duration;\n        uint8 threshold;\n        bytes32[] session_codes;\n        uint8 cost;\n    }\n\n    address public certifierAccount;\n    mapping(bytes32 => Course) courses;\n\n    constructor () public {\n        certifierAccount = msg.sender;\n    }\n\n    modifier onlyCertifier () {\n        require(msg.sender == certifierAccount);\n        _;\n    }\n\n    function addCourse(\n        string _name,\n        bytes32 _code,\n        uint8 _max_st,\n        uint _start,\n        uint _end,\n        uint8 _hours,\n        uint8 _threshold,\n        bytes32[] _session_codes,\n        uint8 _cost) public onlyCertifier {\n        courses[_code] = Course({\n            name : _name,\n            students : _max_st,\n            start : _start,\n            end : _end,\n            duration : _hours,\n            threshold : _threshold,\n            session_codes : _session_codes,\n            cost : _cost\n            });\n    }\n}",
  "sourcePath": "/home/mesi/Blockchain/certifier/contracts/Certifier.sol",
  "compiler": {
    "name": "solc",
    "version": "0.4.24+commit.e67f0147.Emscripten.clang"
  },
  "schemaVersion": "2.0.1",
  "updatedAt": "2018-08-25T15:01:20.769Z"
}